:100000000C9464000C948C000C948C000C941908D3
:100010000C9419080C9419080C948C000C94F50697
:100020000C948C000C948C000C948C000C94B608EE
:100030000C948C000C9491080C948C000C948C0003
:100040000C94CF070C948C000C949D070C947707AC
:100050000C948C000C948C000C948C000C948C00F0
:100060000C948C000C948C000000000024002700ED
:100070002A0000000008000201000003040700003D
:1000800000000000000002000000002300260029FC
:100090000000000000250028002B000404040404D4
:1000A0000404040202020202020303030303030125
:1000B00002040810204080010204081020010204FC
:1000C00008102000E00AE30F11241FBECFEFD8E094
:1000D000DEBFCDBF24E0A8E2B3E001C01D92A1368F
:1000E000B207E1F713E0A0E0B1E0E6E7F5E202C015
:1000F00005900D92A832B107D9F710E0C3E6D0E021
:1001000004C02197FE010E94B610C236D107C9F77C
:100110000E94F30B0C94AE120C9400000895AF9261
:10012000BF92CF92DF92EF92FF920F931F93CF93E4
:10013000DF936C017B018B01040F151FEB015E0146
:10014000AE18BF08C017D10759F06991D601ED91DB
:10015000FC910190F081E02DC6010995892B79F77A
:10016000C501DF91CF911F910F91FF90EF90DF902C
:10017000CF90BF90AF900895FC01538D448D252FF3
:1001800030E0842F90E0821B930B541710F0CF9631
:10019000089501970895FC01918D828D981761F063
:1001A000A28DAE0FBF2FB11D5D968C91928D9F5F7A
:1001B0009F73928F90E008958FEF9FEF08952FB770
:1001C000F8948091710390917203A0917303B091A0
:1001D00074032FBF80938E0390938F03A09390039B
:1001E000B093910386E893E00E94CB0097FF26C06E
:1001F0002FB7F8948091710390917203A0917303CB
:10020000B09174032FBF40918E0350918F03609182
:10021000900370919103841B950BA60BB70B409133
:100220008A0350918B0360918C0370918D03841726
:100230009507A607B707B0F28FEF9FEF0895FC016F
:10024000918D828D981731F0828DE80FF11D858D8B
:1002500090E008958FEF9FEF0895FC01918D228D1E
:10026000892F90E0805C9F4F821B91098F739927A3
:10027000089586E893E00E942D0121E0892B09F47E
:1002800020E0822F089580E090E0892B29F00E94E1
:10029000390181110C9400000895FC01A48DA80F70
:1002A000B92FB11DA35ABF4F2C91848D90E00196B8
:1002B0008F739927848FA689B7892C93A089B189D8
:1002C0008C91837080648C93938D848D981306C079
:1002D0000288F389E02D80818F7D80830895EF92DD
:1002E000FF920F931F93CF93DF93EC0181E0888FF0
:1002F0009B8D8C8D98131AC0E889F989808185FFC0
:1003000015C09FB7F894EE89FF896083E889F98961
:1003100080818370806480839FBF81E090E0DF9163
:10032000CF911F910F91FF90EF900895F62E0B8DB6
:1003300010E00F5F1F4F0F731127E02E8C8D8E1171
:100340000CC00FB607FCFACFE889F989808185FFD8
:10035000F5CFCE010E944D01F1CFEB8DEC0FFD2FBB
:10036000F11DE35AFF4FF0829FB7F8940B8FEA8993
:10037000FB8980818062CFCFCF93DF93EC01888DA2
:100380008823B9F0AA89BB89E889F9898C9185FD10
:1003900003C0808186FD0DC00FB607FCF7CF8C919E
:1003A00085FFF2CF808185FFEDCFCE010E944D0108
:1003B000E9CFDF91CF91089590E0FC01EE58FF4F17
:1003C0002491FC01E155FF4F3491FC01E556FF4FAC
:1003D000E491EE23C9F0222339F0233001F1A8F48F
:1003E000213019F1223029F1F0E0EE0FFF1FEF5616
:1003F000FF4FA591B4918FB7F894EC91611126C08D
:1004000030953E233C938FBF08952730A9F02830C4
:10041000C9F0243049F7809180008F7D03C080911E
:1004200080008F7780938000DFCF84B58F7784BD85
:10043000DBCF84B58F7DFBCF8091B0008F77809329
:10044000B000D2CF8091B0008F7DF9CF3E2BDACFB4
:10045000CF93DF9390E0FC01E155FF4F2491855647
:100460009F4FFC0184918823D1F090E0880F991F61
:10047000FC01E859FF4FA591B491FC01EF56FF4FE5
:10048000C591D49161110EC09FB7F8948C91E22F61
:10049000E0958E238C932881E223E8839FBFDF9130
:1004A000CF9108958FB7F894EC91E22BEC938FBF26
:1004B000F6CF4F925F926F927F928F929F92AF9200
:1004C000BF92CF92DF92EF92FF920F931F93CF9341
:1004D0008C0180910001863099F08F3F09F486C02D
:1004E000CF911F910F91FF90EF90DF90CF90BF9031
:1004F000AF909F908F907F906F905F904F900895F6
:10050000E6E8F0E0C491C7FDEBCF61E086E00E9431
:100510002802CC2319F0C23009F04FC14801B12C98
:10052000A12C60E072E18AE790E0A50198010E94A9
:10053000971029013A017A01690121E0C21AD10814
:10054000E108F1088FEFC816D104E104F10409F0C5
:100550000CF406C160E472E48FE090E0A50198011C
:100560000E94971069017A0181E0C81AD108E10858
:10057000F108C23009F0A9C082E02FEFC216D10401
:10058000E104F10409F00CF492C160E970ED83E03C
:1005900090E0A50198010E94971069017A0181E01D
:1005A000C81AD108E108F10883E02FEFC216D10480
:1005B000E104F10409F00CF47AC168E478EE81E01A
:1005C00090E0A50198010E94971069017A0181E0ED
:1005D000C81AD108E108F1082FEFC216D104E104CE
:1005E000F10411F00CF094C084E061C186E08093C6
:1005F0000001E6E8F0E0C491CF3F09F471CFC130CB
:1006000021F150F0C23009F43EC0C7FD69CF61E06E
:1006100086E00E9428027FCF14BC15BC84B582609E
:1006200084BD85B5816085BDE1EAF0E0E491F0E04C
:10063000EE0FFF1FEF56FF4F85919491E5EBF0E031
:10064000E491E0937903C0E060CF109280001092B3
:100650008100809181008860809381008091810079
:10066000816080938100E1EAF0E0E491F0E0EE0F38
:10067000FF1FEF56FF4F85919491E5EBF0E0E49179
:10068000E093780342CF1092B0001092B1008091B5
:10069000B00082608093B0008091B100816080934F
:1006A000B100E1EAF0E0E491F0E0EE0FFF1FEF5659
:1006B000FF4F859194919093770380937603E5EBB8
:1006C000F0E0E491E093750320CF8FEFC816D104DA
:1006D000E104F10409F00CF46EC068E478EE81E006
:1006E00090E0A50198010E94971069017A0181E0CC
:1006F000C81AD108E108F108CC2309F4DFC08FEF54
:10070000C816D104E104F10411F00CF0E0C06CCF84
:1007100064E274EF80E090E0A50194010E949710DC
:1007200069017A0181E0C81AD108E108F10885E081
:100730002FEFC216D104E104F10409F008F4B7C0A8
:1007400062E17AE780E090E0A50194010E949710B1
:1007500069017A0181E0C81AD108E108F108C8C02E
:1007600081E0C111A4C095B5987F892B85BD980102
:10077000220F331FA0EDB7E00E943E1028EE33E0B9
:1007800040E050E00E947510C13009F446C0C2300C
:1007900009F455C0C111A4CEC7BC20938203309385
:1007A0008303409384035093850380916E0082609D
:1007B00080936E0095CE82E0D4CFF12CE12C60E0E6
:1007C00072E18AE790E0A70198010E949710DA0190
:1007D000C9010197A109B109009721E0A207B1055C
:1007E0005CF46C0191E0C13011F680918100887F4A
:1007F000892B80938100BBCF68E478EE81E090E0A4
:10080000A70198010E94971069017A0181E0C81A36
:10081000D108E108F10893E0E6CFD0928900C092B8
:10082000880020937E0330937F034093800350938E
:10083000810380916F00826080936F0051CEC092DF
:10084000B30020937A0330937B0340937C0350934F
:100850007D038091700082608093700041CE7301AF
:1008600062019AE0F594E794D794C7949A95D1F7EA
:1008700021E0C21AD108E108F10885E074CF8FEFBA
:10088000C816D104E104F10409F048F784E06BCF05
:10089000730162018AE0F594E794D794C7948A952E
:1008A000D1F721E0C21AD108E108F10887E0909160
:1008B000B100987F892B8093B10059CF83E02FEF4F
:1008C000C216D104E104F10409F00CF44CCF62E14A
:1008D0007AE780E090E0A50194010E9497106901F9
:1008E0007A0181E0C81AD108E108F108CC2339F275
:1008F0008FEFC816D104E104F10409F048F686E050
:10090000D6CF1F93CF93DF93182FEB0161E00E94A6
:100910002802209739F460E0812FDF91CF911F9159
:100920000C94DC01CF3FD10511F461E0F5CFE12F4C
:10093000F0E0EE58FF4FE491E33031F140F4E13064
:10094000B1F0E230E1F0C038D1057CF7E4CFE73018
:1009500029F1E83059F1E430B1F7809180008062EC
:1009600080938000D0938B00C0938A0004C084B52C
:10097000806884BDC7BDDF91CF911F91089584B574
:10098000806284BDC8BDF7CF80918000806880936D
:100990008000D0938900C0938800EDCF8091B00093
:1009A00080688093B000C093B300E5CF8091B00021
:1009B00080628093B000C093B400DDCF3FB7F8945D
:1009C0008091690390916A03A0916B03B0916C03CD
:1009D00026B5A89B05C02F3F19F00196A11DB11D9A
:1009E0003FBFBA2FA92F982F8827BC01CD01620FD6
:1009F000711D811D911D42E0660F771F881F991F91
:100A00004A95D1F708958F929F92AF92BF92CF925D
:100A1000DF92EF92FF924B015C010E94DE046B01BA
:100A20007C010E94DE046C197D098E099F09683ED5
:100A3000734081059105A8F321E0821A9108A1086D
:100A4000B10888EEC80E83E0D81EE11CF11C8114A9
:100A50009104A104B10429F7FF90EF90DF90CF90AB
:100A6000BF90AF909F908F90089520916F03309129
:100A700070032817390771F490916D0380916E030C
:100A8000981741F0E0916D03F0E0E85DFC4F808144
:100A900090E008958FEF9FEF08950895EF92FF92F1
:100AA0000F931F93CF93DF93DC015C96ED90FC9046
:100AB0005D97E114F10479F481E090E013969C9342
:100AC0008E93129790E080E0DF91CF911F910F916C
:100AD000FF90EF9008955196ED91FC9152975096AA
:100AE0008C915097982F90950FB75E962C915E97AA
:100AF000122F127021FD6095F8942081112319F1B5
:100B0000282B2083E7012197F1F728E0462F50E0BA
:100B1000308160FF1AC0382B3083E7012197F1F74D
:100B2000BA0175956795215089F7112381F080816D
:100B3000892380830FBF5C968D919C910197F1F77B
:100B400081E090E0C1CF2923DCCF3923E5CF90812C
:100B5000892BEFCF20916F0330917003281739074D
:100B600071F480916E0320916D0390E0805C9F4F43
:100B7000821B910960E470E00E946110089590E08A
:100B800080E0089520916F03309170032817390792
:100B9000B9F490916D0380916E03981789F0E091FC
:100BA0006D03F0E0E85DFC4F808120916D0330E043
:100BB0002F5F3F4F2F73332720936D0390E00895ED
:100BC0008FEF9FEF089590E080E00895CF93DF933B
:100BD000EC0188819981009711F00E9458111982C7
:100BE00018821D821C821B821A82DF91CF91089588
:100BF000FC0180819181009711F00C9458110895A7
:100C0000FB0101900020E9F73197AF01461B570B1C
:100C1000DC01ED91FC910280F381E02D09946BE2FF
:100C200071E00C9400060F931F93CF93DF93EC01B8
:100C30000E9400068C01CE010E940F06800F911FBA
:100C4000DF91CF911F910F9108950F931F93CF9331
:100C5000DF93EC01FB014481558160817181E88162
:100C6000F9810280F381E02D09958C01CE010E946B
:100C70000F06800F911FDF91CF911F910F91089563
:100C80000F931F93CF93DF93EC0188819981009795
:100C900059F02A813B812617370730F081E0DF9138
:100CA000CF911F910F9108958B016F5F7F4F0E942D
:100CB000E111009759F0998388831B830A832C8163
:100CC0003D81232B59F7FC011082E8CF80E0E7CF6C
:100CD000EF92FF920F931F93CF93DF9361157105EE
:100CE00041F480E0DF91CF911F910F91FF90EF9041
:100CF000089541155105B1F07B01EC010C811D8176
:100D0000040F151FB8010E944006882351F3288163
:100D100039818C819D81B701820F931F0E94A71298
:100D20001D830C8381E0DECFCF93DF93EC01FB01C9
:100D300001900020E9F73197AF01461B570B0E9445
:100D40006806811103C0CE010E94E605CE01DF9145
:100D5000CF910895EF92FF920F931F93CF93DF935C
:100D6000EC017B018A01BA010E94400681110BC08F
:100D7000CE010E94E605CE01DF91CF911F910F9128
:100D8000FF90EF9008951D830C83B70188819981AE
:100D90000E94A712F0CFFC011182108213821282EE
:100DA00015821482F4E082339F0769F06091320467
:100DB000709133046115710531F040913604509102
:100DC00037040C94AA060895FC0111821082138244
:100DD000128215821482FB0101900020E9F73197FD
:100DE000AF01461B570B0C94AA061F920F920FB629
:100DF0000F9211242F933F934F935F936F937F93A1
:100E00008F939F93AF93BF93EF93FF9380917A0358
:100E100090917B03A0917C03B0917D03892B8A2B59
:100E20008B2BD1F190917503E0917603F0917703CC
:100E300080818927808380917A0390917B03A091A0
:100E40007C03B0917D03181619061A061B069CF444
:100E500080917A0390917B03A0917C03B0917D03F4
:100E60000197A109B10980937A0390937B03A09322
:100E70007C03B0937D03FF91EF91BF91AF919F9160
:100E80008F917F916F915F914F913F912F910F9033
:100E90000FBE0F901F90189580910001E6E8F0E0DA
:100EA000E4919FEF90930001E13051F030F0E23097
:100EB00069F060E00E94DC01DECF10926E00F9CF95
:100EC00090916F009D7F90936F00F3CF9091700091
:100ED0009D7F9093700091E09093B0009091B1004D
:100EE000987F94609093B1001092B300E2CF1F926C
:100EF0000F920FB60F9211242F933F934F935F934E
:100F00006F937F938F939F93AF93BF93EF93FF93D1
:100F100086E893E00E944D01FF91EF91BF91AF9160
:100F20009F918F917F916F915F914F913F912F9101
:100F30000F900FBE0F901F9018951F920F920FB633
:100F40000F9211242F938F939F93EF93FF93E09130
:100F50009603F09197038081E0919C03F0919D03AB
:100F600082FD1BC0908180919F038F5F8F732091C2
:100F7000A003821741F0E0919F03F0E0EA57FC4F95
:100F8000958F80939F03FF91EF919F918F912F9168
:100F90000F900FBE0F901F9018958081F4CF1F9275
:100FA0000F920FB60F9211242F933F938F939F931D
:100FB000AF93BF938091710390917203A0917303DB
:100FC000B09174033091680323E0230F2D3758F557
:100FD0000196A11DB11D2093680380937103909326
:100FE0007203A0937303B09374038091690390918B
:100FF0006A03A0916B03B0916C030196A11DB11D12
:101000008093690390936A03A0936B03B0936C037E
:10101000BF91AF919F918F913F912F910F900FBEF4
:101020000F901F90189526E8230F0296A11DB11D61
:10103000D2CF1F920F920FB60F9211242F933F938E
:101040004F935F936F937F938F939F93AF93BF93D0
:10105000EF93FF93E0916F03F0917003309749F0A5
:10106000A685B7858585968D91FF14C09C918923AF
:10107000A1F4FF91EF91BF91AF919F918F917F91DB
:101080006F915F914F913F912F910F900FBE0F90F5
:101090001F9018959C91892361F7A389B4899C912D
:1010A0008589809589238C93868997890197F1F7A3
:1010B000608D718DA685B785558538E020E0CB0120
:1010C0000197F1F7822F90E095958795282F4C9105
:1010D000452309F02068315091F7868D81FD2095D8
:1010E00080916E0390E001968F73992730916D0384
:1010F000381799F0A0916E03B0E0A85DBC4F2C9317
:1011000080936E03828D938D0197F1F7A389B48943
:101110008C919589892B8C93ACCF868D8160868F3D
:10112000F1CF1F920F920FB60F9211242F933F937E
:101130004F935F936F937F938F939F93AF93BF93DF
:10114000EF93FF93F0E0E0E00995FF91EF91BF91FD
:10115000AF919F918F917F916F915F914F913F914F
:101160002F910F900FBE0F901F9018951F920F9206
:101170000FB60F9211242F923F924F925F926F926F
:101180007F928F929F92AF92BF92CF92DF92EF9217
:10119000FF920F931F932F933F934F935F936F9300
:1011A0007F938F939F93AF93BF93EF93FF93CF93CF
:1011B000DF9300D000D0CDB7DEB7F89420912304A0
:1011C000309124043A83298330E020E050E040E06D
:1011D000A981BA8111968C9111978417150629F16E
:1011E00024F11296ED91FC91E20FF31F80818E3075
:1011F00008F08E508770806480937C0080917A0024
:10120000806480937A0080917A0086FDFCCF909173
:10121000780080917900892798278927918780878E
:101220004F5F5F4F245C3F4FD3CF312C212C10E018
:1012300000E050E6852E5AEE952EA12CB12CE981C6
:10124000FA8181818017110609F00CF48CC122818A
:101250003381220D331D3C832B83D901D0964D90D1
:101260005D906D907C90D397F901808D918DA28DCA
:10127000B38D480E591E6A1E7B1E40AA51AA62AA4F
:1012800073AA84899589A689B7897201E81AF90A2F
:10129000868597850C97978786878685978597FD9E
:1012A000BBC086859785873F99400CF0B8C0D901AF
:1012B0001E968D919C91EB81FC8197878687808516
:1012C0009185C0ACD1AC8C159D05CCF482859385FD
:1012D00065E070E00E946110CB01880F991F680FD4
:1012E000791F6E157F055CF42085318586A997A945
:1012F0002817390724F48085918597AB86ABAB819D
:10130000BC8118968D919C911997C816D9069CF4AA
:1013100018962D913C911997D4968D919C91D597C3
:101320008217930744F418968D919C911997D5963E
:101330009C938E93D497BBEFEB16F1040CF4A5C0ED
:10134000EB81FC8180859185C816D9060CF09DC083
:10135000848581119AC08285938565E070E00E9442
:101360006110CB01880F991F680F791F6E157F05DB
:101370000CF08BC021E0248784899589A689B789E0
:10138000F201E81BF90BAB81BC811B96FC93EE9339
:101390001A97FD01448A558A668A778A83AD882325
:1013A00071F013AE7C96CD01C096AB81BC811A96CC
:1013B0002D913C91219331938E179F07B1F7EB81CB
:1013C000FC8182AD882371F112AE21E023AFAB81A5
:1013D000BC8112968D919C91139797FD08C01C9625
:1013E0002C9161E0211101C060E00E94DC01EB81E1
:1013F000FC812481358137FD09C0868597856AE0A7
:1014000070E00E946110822F0E9481040F5F1F4FC5
:10141000FCE32F0E311C13CF90E080E04CCF86EF21
:1014200099E049CFEB81FC817C964B815C81425DE8
:101430005F4F30E020E08281938181939193280F68
:10144000391F4E175F07B9F7AB81BC811A968D9192
:101450009C911B979F969C938E939E97820F931FB0
:101460006AE070E00E944D109B0150E040E0C50131
:10147000B4010E949710EB81FC813783268321E021
:10148000258786EF99E097878687AB81BC81189680
:101490008D919C9119978C159D053CF51C968C910E
:1014A0001C97882311F11C961C921C97D6964D917F
:1014B0005C91D797D4962D913C91D597241B350BF1
:1014C00053963C932E93529752968D919C9197FDF3
:1014D000019695958795840F951FEB81FC8191AFBF
:1014E00080AF95AB84AB97AB86ABF5ECEF16F9E02C
:1014F000FF060CF46CCFAB81BC8150968D919C9112
:101500005197D9969C938E93D897E0E0F2E0D596C8
:10151000FC93EE93D497D796FC93EE93D69754967C
:101520004D925D926D927C925797E1E0DA96EC9342
:10153000DA97DB961C92DB971D961C921D971796E7
:101540001C921E92169728E532E01B963C932E9330
:101550001A971C961C921C9784E690E053969C93D5
:101560008E93529734CF81E0A981BA8118968C93DB
:1015700078940F900F900F900F90DF91CF91FF9183
:10158000EF91BF91AF919F918F917F916F915F91FB
:101590004F913F912F911F910F91FF90EF90DF900E
:1015A000CF90BF90AF909F908F907F906F905F9003
:1015B0004F903F902F900F900FBE0F901F90189557
:1015C000109289031092880388EE93E0A0E0B0E0C7
:1015D00080938A0390938B03A0938C03B0938D0325
:1015E0002BE031E0309387032093860325EC30E035
:1015F000309393032093920324EC30E030939503CF
:101600002093940320EC30E03093970320939603CB
:1016100021EC30E0309399032093980322EC30E0E2
:1016200030939B0320939A0326EC30E030939D0384
:1016300020939C0310929F031092A0031092A10389
:101640001092A2031092410410924004809342042D
:1016500090934304A0934404B09345048DE191E03A
:1016600090933F0480933E041092550410925404CA
:101670001092570410925604109259041092580474
:1016800010925B0410925A0460915C046E7F6D7F2F
:1016900060935C046695617081E068278AE00E942F
:1016A000DC0161E08AE00E942802E9EBF0E0E491CD
:1016B000E0934E04E5EAF0E0E491F0E0EE0FFF1F66
:1016C000EF56FF4F859194919093500480934F046F
:1016D00060E089E00E94280280915C0481FD04C0E2
:1016E00061E089E00E94DC0189E080934A04E8EB34
:1016F000F0E0E491E0934B04E4EAF0E0E491F0E000
:10170000EE0FFF1FE957FF4F8591949190934D0481
:1017100080934C046DE271E088E394E00E94E4065B
:101720006DE271E082E394E00E94E40610922F04DF
:1017300010922E0482E090E0909331048093300464
:1017400085E294E0909324048093230481E08093C5
:1017500026048CE390E00E94BC10FC018EE090E037
:10176000918380838FEF9FEF93838283958384831C
:1017700082E090E0A0E0B0E0808F918FA28FB38FE5
:10178000DF015C96CF01C0961D921D92A817B90784
:10179000D9F71586178216828EEE92E0938782879C
:1017A000148610AA11AA12AA13AA148A158A168AD4
:1017B000178A80E092E095AB84AB97AB86AB86E26C
:1017C00092E0918B808B91AF80AF84E690E0938B19
:1017D000828B81E082AF13AE17861686F0932804C1
:1017E000E09327040895CF93DF93CDB7DEB7A39797
:1017F0000FB6F894DEBF0FBECDBF789484B582607B
:1018000084BD84B5816084BD85B5826085BD85B5A4
:10181000816085BD80916E00816080936E00109222
:10182000810080918100826080938100809181009D
:10183000816080938100809180008160809380002E
:101840008091B10084608093B1008091B00081608C
:101850008093B00080917A00846080937A008091B8
:101860007A00826080937A0080917A008160809310
:101870007A0080917A00806880937A001092C1008B
:1018800061E087E00E9428021092590410925804E7
:10189000109257041092560410925504109254045A
:1018A0008DE991E090935B0480935A0490914A04EF
:1018B000963108F047C02DEB30E03093550420936B
:1018C00054042BE931E030935704209356042CE262
:1018D00031E030935904209358042091680084E04B
:1018E000983048F031E09E3008F430E081E001C0EB
:1018F000880F3A95EAF7822B809368002DE630E056
:10190000983050F02BE630E09E3030F02CE630E09E
:10191000963110F030E020E03093520420935104CF
:10192000292F30E0983008F0B5C081E001C0880F61
:101930009A95EAF78093530480915A0490915B043E
:101940000197F1F78091580490915904892B49F13E
:10195000E0916F03F091700384E0EE33F80709F132
:10196000309739F0A389B4899C9185898095892322
:101970008C9380915C048E7F80935C0410926E0344
:1019800010926D038EE394E09093700380936F0345
:10199000E0915104F0915204808190915304892B7D
:1019A0008083E0919603F091970382E08083E09139
:1019B0009203F09193031082E0919403F0919503C8
:1019C0008FEC808310929E03E0919A03F0919B0329
:1019D00086E08083E0919803F09199038081806193
:1019E0008083E0919803F0919903808188608083DF
:1019F000E0919803F0919903808180688083E09161
:101A00009803F091990380818F7D8083E091270472
:101A1000F0912804118210828DE090E093838283FC
:101A2000F89486E292E0918B808B91AF80AF7894AE
:101A3000F12CE12CD12CC12C809126048C151D0495
:101A4000B1F1ACF100912704109128040E0D1F1D77
:101A5000F8018281938197FD08C061E00E9428020D
:101A600060E0F80182810E94DC01F80184819581A7
:101A700097FD09C061E00E94280270E060E0F80173
:101A800084810E948104FFEFCF1ADF0A8CE3E80E05
:101A9000F11CD2CF9E3040F42850310981E001C0C2
:101AA000880F2A95EAF746CF2E503109F7CF0E94CA
:101AB000DE046053784F8F4F9F4F609329047093DB
:101AC0002A0480932B0490932C0410922D041092DE
:101AD000250410928000109282008CE08093810097
:101AE0008CE790E0909389008093880082E0809357
:101AF0006F0078946EE271E086E893E00E9413062E
:101B00008AE0482E512C612C712C90E0A92E90E097
:101B1000B92E60E571E086E893E00E94000686E851
:101B200093E00E942D01892BD1F31A8219821C8225
:101B30001B821E821D8250E040E06DE271E0CE010A
:101B400001960E94AA060E94DF0097FD0FC08A300E
:101B5000910561F08AA31BA241E050E0BE016E5DD9
:101B60007F4FCE0101960E946806EDCF809132042E
:101B700090913304009709F429C169817A81611534
:101B8000710509F421C140913404509135042D812F
:101B90003E814217530708F417C10E94A7128D8196
:101BA0009E8190933704809336041E821D82CE015D
:101BB00001960E94F80586E893E00E940F0686E8E9
:101BC00093E00E940F0661E671E0CE0101960E944B
:101BD000E4064091360450913704609132047091CC
:101BE0003304CE0101960E946806811104C0CE0123
:101BF00001960E94E6056EE471E0CE0101960E9416
:101C00009406BC0186E893E00E942506CE01019669
:101C10000E94F805E0912704F091280406811781BD
:101C2000F894858515867894882309F4B3C064E711
:101C300071E086E893E00E9413066CE871E086E8A4
:101C400093E00E9400066801012E000CEE08FF08D8
:101C5000F7FED3C06DE286E893E00E946F01222771
:101C60003327A9012C193D094E095F0919A2FE016C
:101C7000B1967F01CA01B901A30192010E947510BA
:101C8000605DF70162937F01211531054105510522
:101C900089F7E114F10429F0B70186E893E00E9486
:101CA000000686E893E00E940F0686E893E00C3376
:101CB00011050CF0B8C00E940F06CE0101960E94DB
:101CC000CB0662E971E0CE0101960E949406BC0148
:101CD00086E893E00E942506CE0101960E94F80551
:101CE0006FEF70E087E00E94810486E091E00E943F
:101CF00059028EE394E00E940F068EE394E00E9466
:101D00000F0662ED71E08EE394E00E94130668EE28
:101D100073E080E090E00E9403056CED71E08EE3DB
:101D200094E00E94130668EE73E080E090E00E9469
:101D300003056FED71E08EE394E00E94130668EEF8
:101D400073E080E090E00E940305CE0101960E94BE
:101D5000CB0669EF71E0CE0101960E949406FC016A
:101D600044815581608171818EE394E00E948F00EF
:101D7000CE0101960E94F8058EE394E00E940F06C2
:101D80008EE394E00E940F066EED72E08EE394E025
:101D90000E94130686E893E00E940F0686E893E00F
:101DA0000E940F0664E170E080E090E00E9403056D
:101DB000A114B10409F4ADCE0E943901882309F4BD
:101DC000A8CE0E940000A5CE0E94581189819A8158
:101DD00090933304809332048B819C8190933504DB
:101DE000809334048D819E819093370480933604D0
:101DF0001A8219821C821B82D8CEA701960119A2D1
:101E0000CE0181967C01CA01B901A30192010E9411
:101E10007510605DF70162937F0121153105410561
:101E2000510589F736CF053611050CF468C00E94BC
:101E30000F0686E893E00E940F06CE0101960E94ED
:101E4000CB066EE272E0CE0101960E949406BC01C0
:101E500086E893E00E942506CE0101960E94F805CF
:101E60006FEF70E087E00E94810486E091E00E94BD
:101E700059028EE394E00E940F0662ED71E08EE35A
:101E800094E00E94130668EE73E080E090E00E9408
:101E900003056CED71E08EE394E00E94130668EE9A
:101EA00073E080E090E00E9403056FED71E08EE347
:101EB00094E00E94130668EE73E080E090E00E94D8
:101EC0000305CE0101960E94CB066FE672E0CE01BB
:101ED00001960E949406BC018EE394E00E942506C0
:101EE000CE0101960E94F8058EE394E00E940F0651
:101EF0008EE394E00E940F066DED72E047CF0E94E2
:101F00000F06CE0101960E94CB0664EA72E0CE0174
:101F100001960E949406BC0186E893E00E94250683
:101F2000CE0101960E94F80570E060E087E00E9413
:101F300081048EE394E00E940F068EE394E00E94F9
:101F40000F0662ED71E08EE394E00E94130668EEE6
:101F500073E080E090E00E9403056CED71E08EE399
:101F600094E00E94130668EE73E080E090E00E9427
:101F700003056FED71E08EE394E00E94130668EEB6
:101F800073E080E090E00E940305CE0101960E947C
:101F9000CB0660EC72E0CE0101960E949406BC0173
:101FA0008EE394E00E942506CE0101960E94F8057A
:101FB0008EE394E00E940F068EE394E00E940F06E9
:101FC00068ED72E0E3CE82E394E00E94F80588E3D6
:101FD00094E00E94F8058DE191E090933F04809396
:101FE0003E0480916F03909170038E53944071F47E
:101FF000E0915104F09152049081809153048095B6
:10200000892380831092700310926F0308952F929A
:102010003F924F925F926F927F928F929F92AF9278
:10202000BF92CF92DF92EF92FF920F931F93CF93C5
:10203000DF93CDB7DEB7CA1BDB0B0FB6F894DEBF5C
:102040000FBECDBF09942A88398848885F846E8482
:102050007D848C849B84AA84B984C884DF80EE80CC
:10206000FD800C811B81AA81B981CE0FD11D0FB6D5
:10207000F894DEBF0FBECDBFED010895A29FB00161
:10208000B39FC001A39F700D811D1124911DB29FAC
:10209000700D811D1124911D0895AA1BBB1B51E1D8
:1020A00007C0AA1FBB1FA617B70710F0A61BB70BC8
:1020B000881F991F5A95A9F780959095BC01CD016D
:1020C000089597FB072E16F4009407D077FD09D0EA
:1020D0000E944D1007FC05D03EF4909581959F4FCE
:1020E0000895709561957F4F0895A1E21A2EAA1B5D
:1020F000BB1BFD010DC0AA1FBB1FEE1FFF1FA217B8
:10210000B307E407F50720F0A21BB30BE40BF50BB4
:10211000661F771F881F991F1A9469F7609570953D
:10212000809590959B01AC01BD01CF010895052ECE
:1021300097FB1EF400940E94AE1057FD07D00E943A
:10214000751007FC03D04EF40C94AE1050954095DA
:10215000309521953F4F4F4F5F4F08959095809553
:10216000709561957F4F8F4F9F4F0895EE0FFF1F22
:102170000590F491E02D09940F931F93CF93DF9373
:102180008230910510F482E090E0E0915F04F091DC
:10219000600430E020E0B0E0A0E0309799F4211531
:1021A000310509F44AC0281B390B24303105D8F514
:1021B0008A819B816115710589F1FB01938382837B
:1021C000FE0111C0408151810281138148175907D6
:1021D000E0F04817590799F4109761F012960C93A4
:1021E000129713961C933296CF01DF91CF911F91D6
:1021F0000F91089500935F0410936004F4CF2115AC
:10220000310551F04217530738F0A901DB019A015B
:10221000BD01DF01F801C1CFEF01F9CF9093600458
:1022200080935F04CDCFFE01E20FF31F8193919362
:102230002250310939832883D7CF20915D04309112
:102240005E04232B41F4209103013091040130936B
:102250005E0420935D04209101013091020121155B
:10226000310541F42DB73EB740910501509106016B
:10227000241B350BE0915D04F0915E04E217F30737
:10228000A0F42E1B3F0B2817390778F0AC014E5FE6
:102290005F4F2417350748F04E0F5F1F50935E04C1
:1022A00040935D04819391939FCFF0E0E0E09CCF59
:1022B000CF93DF930097E9F0FC01329713821282EB
:1022C000A0915F04B0916004ED0130E020E0109730
:1022D000A1F420813181820F931F20915D04309100
:1022E0005E042817390709F061C0F0935E04E0939B
:1022F0005D04DF91CF910895EA01CE17DF07E8F57D
:102300004A815B819E0141155105B1F7E901FB83CB
:10231000EA8349915991C40FD51FEC17FD0761F469
:10232000808191810296840F951FE90199838883AA
:10233000828193819B838A83F0E0E0E012968D9105
:102340009C9113970097B9F52D913C911197CD0170
:102350000296820F931F20915D0430915E0428172E
:10236000390739F6309751F51092600410925F04E6
:10237000B0935E04A0935D04BCCFD383C28340813D
:102380005181840F951FC817D90761F44E5F5F4FC5
:1023900088819981480F591F518340838A819B818D
:1023A000938382832115310509F0B0CFF093600447
:1023B000E0935F049ECFFD01DC01C0CF1382128247
:1023C000D7CFB0E0A0E0E7EEF1E10C9409108C016A
:1023D000009751F4CB010E94BC108C01C801CDB70D
:1023E000DEB7E0E10C942510FC01E60FF71F9C011D
:1023F00022503109E217F30708F49DC0D901CD91AD
:10240000DC911197C617D70798F0C530D10530F386
:10241000CE0104978617970708F3C61BD70B2297A0
:10242000C193D1936D937C93CF010E945811D6CF65
:102430005B01AC1ABD0A4C018C0E9D1EA0915F047D
:10244000B0916004512C412CF12CE12C109731F506
:1024500080915D0490915E048815990509F05CC037
:102460004616570608F058C080910101909102016C
:10247000009741F48DB79EB7409105015091060138
:10248000841B950BE817F90708F055C0F0935E041C
:10249000E0935D04F90171836083A0CF8D919C91DD
:1024A000119712966C90129713967C901397A8151B
:1024B000B90559F56C0142E0C40ED11CCA14DB0405
:1024C00020F1AC014A195B09DA011296159780F0E8
:1024D0006282738251834083D9016D937C93E114AE
:1024E000F10471F0D7011396FC93EE93129776CF17
:1024F00022968C0F9D1FF90191838083F301EFCF0A
:10250000F0936004E0935F0469CF4816590608F41D
:102510002C017D01D3019ACFCB010E94BC107C011C
:10252000009749F0AE01B8010E949E12C8010E94B6
:102530005811870153CF10E000E050CFFB01DC01C0
:1025400002C001900D9241505040D8F70895FB0110
:10255000DC0101900D920020E1F7089510E0C3E640
:10256000D0E004C0FE010E94B6102196C436D10707
:06257000C9F7F894FFCF4B
:10257600FF000061048000000000006F018F00BCB6
:1025860000BC012D01CB001F01000000004E058F8D
:1025960000E3054D05AA05C20535050D0A00576578
:1025A600206372656174656420612070756C736563
:1025B60053656E736F72204F626A656374202100E3
:1025C600456E74657220796F7572204E616D653A3D
:1025D600004E69636520746F206D65657420796FA0
:1025E600752C200041204865617274426561742033
:1025F60048617070656E65642021200042504D3A36
:1026060020002C20596F7572204865617274205223
:10261600617465206973204C6F7720616E64207940
:102626006F752061726520737566666572696E677F
:102636002066726F6D2042524144594341524449CB
:10264600410041542B434D47463D31004F4B00411D
:10265600542B434D47533D222B38383031373537CD
:10266600343033363636220D0027732068656172A2
:10267600742052617465206973204C6F7720616EF7
:102686006420737566666572696E672066726F6D23
:102696002042524144594341524449410A002C20A8
:1026A600596F757220486561727420526174652095
:1026B6006973204869676820616E6420796F7520A8
:1026C60061726520737566666572696E67206672EB
:1026D6006F6D2054414348594341524449410027B4
:1026E6007320486561727420526174652069732095
:1026F6004869676820616E642073756666657269ED
:102706006E672066726F6D205441434859434152AB
:10271600444941002C20596F7572204865617274D6
:102726002072617465206973206E6F726D616C0032
:10273600277320486561727420726174652069731D
:10274600206E6F726D616C002D2D2D2D2D2D2D2D72
:102756002D2D2D2D2D2D2D2D2D2D2D2D2D2D2D2DA3
:102766002D2D2D2D2D2D2D2D2D2D2D2D2D2D2D2D93
:102776002D2D2D2D2D2D2D2D2D2D2D2D2D2D2D2D83
:102786002D2D2D2D2D2D2D2D2D2D2D2D2D2D2D2D73
:082796002D2D2D2D2D2D00002D
:00000001FF
