:020000040000FA
:100000000C945F000C9487000C9487000C9487007C
:100010000C9487000C9487000C9487000C94C905FD
:100020000C9487000C9487000C9487000C941207A2
:100030000C9487000C94ED060C9487000C948700B8
:100040000C94A3060C9487000C9471060C944B0638
:100050000C9487000C9487000C9487000C94870004
:100060000C9487000C948700000000080002010037
:100070000003040700000000000000000200000070
:1000800000250028002B0000000000240027002A83
:100090000004040404040404040202020202020331
:1000A000030303030301020408102040800102043B
:1000B000081020010204081020003C094F0C1124F4
:1000C0001FBECFEFD8E0DEBFCDBF22E0AEE1B2E091
:1000D00001C01D92AE3EB207E1F712E0A0E0B1E030
:1000E000EEE0FEE102C005900D92AE31B107D9F706
:1000F00010E0CEE5D0E004C02197FE010E94020D81
:10010000CD35D107C9F70E94EF090C94FA0E0C9473
:10011000000090E0FC01EB55FF4F24918F569F4F5C
:10012000FC018491882399F090E0880F991FFC01CD
:10013000E957FF4FA591B491FC01E358FF4F85911A
:1001400094918FB7F894EC91E22BEC938FBF0895C4
:100150004F925F926F927F928F929F92AF92BF92D7
:10016000CF92DF92EF92FF920F931F93CF938C0168
:1001700080910001863099F08F3F09F485C0CF91BE
:100180001F910F91FF90EF90DF90CF90BF90AF90B5
:100190009F908F907F906F905F904F900895ECE7C5
:1001A000F0E0C491C7FDEBCF86E00E948900CC232C
:1001B00019F0C23009F04EC14801B12CA12C60E009
:1001C00072E18AE790E0A50198010E94E30C290101
:1001D0003A017A01690121E0C21AD108E108F10867
:1001E0008FEFC816D104E104F10409F00CF405C145
:1001F00060E472E48FE090E0A50198010E94E30CB6
:1002000069017A0181E0C81AD108E108F108C23019
:1002100009F0A8C082E02FEFC216D104E104F10476
:1002200009F00CF491C160E970ED83E090E0A50164
:1002300098010E94E30C69017A0181E0C81AD10893
:10024000E108F10883E02FEFC216D104E104F104C4
:1002500009F00CF479C168E478EE81E090E0A50142
:1002600098010E94E30C69017A0181E0C81AD10863
:10027000E108F1082FEFC216D104E104F10411F0F6
:100280000CF093C084E060C186E080930001ECE74D
:10029000F0E0C491CF3F09F472CFC13019F148F0BA
:1002A000C23009F43DC0C7FD6ACF86E00E948900D4
:1002B00080CF14BC15BC84B5826084BD85B58160D7
:1002C00085BDE7E9F0E0E491F0E0EE0FFF1FE358B1
:1002D000FF4F85919491EBEAF0E0E491E0932B02DB
:1002E000C0E062CF10928000109281008091810066
:1002F000886080938100809181008160809381007B
:10030000E7E9F0E0E491F0E0EE0FFF1FE358FF4F64
:1003100085919491EBEAF0E0E491E0932A0244CFD6
:100320001092B0001092B1008091B0008260809372
:10033000B0008091B10081608093B100E7E9F0E006
:10034000E491F0E0EE0FFF1FE358FF4F8591949189
:100350009093290280932802EBEAF0E0E491E09385
:10036000270222CF8FEFC816D104E104F10409F06F
:100370000CF46EC068E478EE81E090E0A50198018D
:100380000E94E30C69017A0181E0C81AD108E108F2
:10039000F108CC2309F4DFC08FEFC816D104E104C3
:1003A000F10411F00CF0E0C06DCF64E274EF80E076
:1003B00090E0A50194010E94E30C69017A0181E0BB
:1003C000C81AD108E108F10885E02FEFC216D10460
:1003D000E104F10409F008F4B7C062E17AE780E0D3
:1003E00090E0A50194010E94E30C69017A0181E08B
:1003F000C81AD108E108F108C8C081E0C111A4C041
:1004000095B5987F892B85BD9801220F331FA0EDEC
:10041000B7E00E948A0C28EE33E040E050E00E94F2
:10042000C10CC13009F446C0C23009F455C0C11135
:10043000A6CEC7BC209334023093350240933602D7
:100440005093370280916E00826080936E0097CE49
:1004500082E0D4CFF12CE12C60E072E18AE790E0F9
:10046000A70198010E94E30CDA01C9010197A109D3
:10047000B109009721E0A207B1055CF46C0191E09D
:10048000C13011F680918100887F892B8093810093
:10049000BBCF68E478EE81E090E0A70198010E946C
:1004A000E30C69017A0181E0C81AD108E108F1087A
:1004B00093E0E6CFD0928900C0928800209330026A
:1004C00030933102409332025093330280916F0097
:1004D000826080936F0053CEC092B30020932C02B1
:1004E00030932D0240932E0250932F028091700082
:1004F00082608093700043CE730162019AE0F594AC
:10050000E794D794C7949A95D1F721E0C21AD108FD
:10051000E108F10885E074CF8FEFC816D104E1043B
:10052000F10409F048F784E06BCF730162018AE0BF
:10053000F594E794D794C7948A95D1F721E0C21A2D
:10054000D108E108F10887E09091B100987F892BEC
:100550008093B10059CF83E02FEFC216D104E1049C
:10056000F10409F00CF44CCF62E17AE780E090E00E
:10057000A50194010E94E30C69017A0181E0C81A87
:10058000D108E108F108CC2339F28FEFC816D10465
:10059000E104F10409F048F686E0D6CF0895AF9261
:1005A000BF92CF92DF92EF92FF920F931F93CF9360
:1005B000DF936C017B018B01040F151FEB015E01C2
:1005C000AE18BF08C017D10759F06991D601ED9157
:1005D000FC910190F081E02DC6010995892B79F7F6
:1005E000C501DF91CF911F910F91FF90EF90DF90A8
:1005F000CF90BF90AF900895FC01538D448D252F6F
:1006000030E0842F90E0821B930B541710F0CF96AC
:10061000089501970895FC01918D828D981761F0DE
:10062000A28DAE0FBF2FB11D5D968C91928D9F5FF5
:100630009F73928F90E008958FEF9FEF08952FB7EB
:10064000F8948091230290912402A0912502B09108
:1006500026022FBF8093400290934102A093420252
:10066000B093430288E392E00E940B0397FF26C0F9
:100670002FB7F8948091230290912402A091250233
:10068000B09126022FBF40914002509141026091EB
:10069000420270914302841B950BA60BB70B40914D
:1006A0003C0250913D0260913E0270913F028417DE
:1006B0009507A607B707B0F28FEF9FEF0895FC01EB
:1006C000918D828D981731F0828DE80FF11D858D07
:1006D00090E008958FEF9FEF0895FC01918D228D9A
:1006E000892F90E0805C9F4F821B91098F7399271F
:1006F000089588E392E00E946D0321E0892B09F4BC
:1007000020E0822F089580E090E0892B29F00E945C
:10071000790381110C9400000895FC01A48DA80FA9
:10072000B92FB11DA35ABF4F2C91848D90E0019633
:100730008F739927848FA689B7892C93A089B18953
:100740008C91837080648C93938D848D981306C0F4
:100750000288F389E02D80818F7D80830895EF9258
:10076000FF920F931F93CF93DF93EC0181E0888F6B
:100770009B8D8C8D98131AC0E889F989808185FF3B
:1007800015C09FB7F894EE89FF896083E889F989DD
:1007900080818370806480839FBF81E090E0DF91DF
:1007A000CF911F910F91FF90EF900895F62E0B8D32
:1007B00010E00F5F1F4F0F731127E02E8C8D8E11ED
:1007C0000CC00FB607FCFACFE889F989808185FF54
:1007D000F5CFCE010E948D03F1CFEB8DEC0FFD2FF5
:1007E000F11DE35AFF4FF0829FB7F8940B8FEA890F
:1007F000FB8980818062CFCFCF93DF93EC01888D1E
:100800008823B9F0AA89BB89E889F9898C9185FD8B
:1008100003C0808186FD0DC00FB607FCF7CF8C9119
:1008200085FFF2CF808185FFEDCFCE010E948D0341
:10083000E9CFDF91CF91089590E0FC01E859FF4F97
:100840002491FC01EB55FF4F3491FC01EF56FF4F13
:10085000E491EE23C9F0222339F0233001F1A8F40A
:10086000213019F1223029F1F0E0EE0FFF1FE3589B
:10087000FF4FA591B4918FB7F894EC91611126C008
:1008800030953E233C938FBF08952730A9F0283040
:10089000C9F0243049F7809180008F7D03C080919A
:1008A00080008F7780938000DFCF84B58F7784BD01
:1008B000DBCF84B58F7DFBCF8091B0008F778093A5
:1008C000B000D2CF8091B0008F7DF9CF3E2BDACF30
:1008D0001F93CF93DF93182FEB010E94890020977D
:1008E00039F460E0812FDF91CF911F910C941C04AB
:1008F000CF3FD10511F461E0F5CFE12FF0E0E859E9
:10090000FF4FE491E33031F140F4E130B1F0E230F7
:10091000E1F0C038D1057CF7E4CFE73029F1E830C9
:1009200059F1E430B1F780918000806280938000BB
:10093000D0938B00C0938A0004C084B5806884BDC6
:10094000C7BDDF91CF911F91089584B5806284BDAA
:10095000C8BDF7CF80918000806880938000D093DD
:100960008900C0938800EDCF8091B00080688093AB
:10097000B000C093B300E5CF8091B0008062809357
:10098000B000C093B400DDCF3FB7F89480911F0250
:1009900090912002A0912102B091220226B5A89B3D
:1009A00005C02F3F19F00196A11DB11D3FBFBA2F01
:1009B000A92F982F8827BC01CD01620F711D811DC1
:1009C000911D42E0660F771F881F991F4A95D1F746
:1009D0000895FC0101900020E9F73197AF01481B11
:1009E000590BBC0188E392E00C94CF02CF93DF93C4
:1009F000FC01448155816081718188E392E00E940D
:100A0000CF02EC0189E191E00E94E9048C0F9D1F67
:100A1000DF91CF910895CF93DF93EC018881998185
:100A2000009711F00E94A40D198218821D821C8269
:100A30001B821A82DF91CF910895FC018081918100
:100A4000009711F00C94A40D08950F931F93CF936A
:100A5000DF93EC0188819981009759F02A813B81CD
:100A60002617370730F081E0DF91CF911F910F916A
:100A700008958B016F5F7F4F0E942D0E009759F0F4
:100A8000998388831B830A832C813D81232B59F70B
:100A9000FC011082E8CF80E0E7CFEF92FF920F9346
:100AA0001F93CF93DF936115710541F480E0DF91CF
:100AB000CF911F910F91FF90EF900895411551052F
:100AC000B1F07B01EC010C811D81040F151FB801F1
:100AD0000E942505882351F3288139818C819D81CD
:100AE000B701820F931F0E94F30E1D830C8381E0D8
:100AF000DECFCF93DF93EC01FB0101900020E9F7FB
:100B00003197AF01461B570B0E944D05811103C061
:100B1000CE010E940B05CE01DF91CF910895EF9297
:100B2000FF920F931F93CF93DF93EC017B018A0118
:100B3000BA010E94250581110BC0CE010E940B0550
:100B4000CE01DF91CF911F910F91FF90EF9008950B
:100B50001D830C83B701888199810E94F30EF0CF29
:100B6000FC01118210821382128215821482F2E03B
:100B7000843E9F0769F06091E4027091E50261157F
:100B8000710531F04091E8025091E9020C948F0513
:100B900008951F920F920FB60F9211242F933F9337
:100BA0004F935F936F937F938F939F93AF93BF9375
:100BB000EF93FF9380912C0290912D02A0912E0231
:100BC000B0912F02892B8A2B8B2BD1F19091270288
:100BD000E0912802F0912902808189278083809109
:100BE0002C0290912D02A0912E02B0912F02181686
:100BF00019061A061B069CF480912C0290912D0276
:100C0000A0912E02B0912F020197A109B109809302
:100C10002C0290932D02A0932E02B0932F02FF91ED
:100C2000EF91BF91AF919F918F917F916F915F9164
:100C30004F913F912F910F900FBE0F901F901895DD
:100C400080910001ECE7F0E0E4919FEF90930001C8
:100C5000E13051F030F0E23069F060E00E941C04B5
:100C6000DECF10926E00F9CF90916F009D7F909330
:100C70006F00F3CF909170009D7F9093700091E092
:100C80009093B0009091B100987F94609093B100E0
:100C90001092B300E2CF1F920F920FB60F92112461
:100CA0002F933F934F935F936F937F938F939F9374
:100CB000AF93BF93EF93FF9388E392E00E948D037D
:100CC000FF91EF91BF91AF919F918F917F916F9124
:100CD0005F914F913F912F910F900FBE0F901F90FA
:100CE00018951F920F920FB60F9211242F938F9386
:100CF0009F93EF93FF93E0914802F0914902808126
:100D0000E0914E02F0914F0282FD1BC090818091D4
:100D100051028F5F8F7320915202821741F0E09150
:100D20005102F0E0E85CFD4F958F80935102FF91F6
:100D3000EF919F918F912F910F900FBE0F901F9069
:100D400018958081F4CF1F920F920FB60F92112445
:100D50002F933F938F939F93AF93BF9380912302E1
:100D600090912402A0912502B091260230911E029A
:100D700023E0230F2D3758F50196A11DB11D2093B7
:100D80001E028093230290932402A0932502B09325
:100D9000260280911F0290912002A0912102B09121
:100DA00022020196A11DB11D80931F029093200283
:100DB000A0932102B0932202BF91AF919F918F9196
:100DC0003F912F910F900FBE0F901F90189526E81E
:100DD000230F0296A11DB11DD2CF1F920F920FB605
:100DE0000F9211242F933F934F935F936F937F93B1
:100DF0008F939F93AF93BF93EF93FF93F0E0E0E067
:100E00000995FF91EF91BF91AF919F918F917F9144
:100E10006F915F914F913F912F910F900FBE0F9067
:100E20001F9018951F920F920FB60F9211242F92B8
:100E30003F924F925F926F927F928F929F92AF926A
:100E4000BF92CF92DF92EF92FF920F931F932F9357
:100E50003F934F935F936F937F938F939F93AF9342
:100E6000BF93EF93FF93CF93DF9300D000D0CDB724
:100E7000DEB7F8942091D5023091D6023A832983C7
:100E800030E020E050E040E0A981BA8111968C91D9
:100E900011978417150629F124F11296ED91FC9112
:100EA000E20FF31F80818E3008F08E5087708064CF
:100EB00080937C0080917A00806480937A00809196
:100EC0007A0086FDFCCF9091780080917900892787
:100ED00098278927918780874F5F5F4F245C3F4F1A
:100EE000D3CF312C212C10E000E050E6852E5AEEB5
:100EF000952EA12CB12CE981FA81818180171106F0
:100F000009F00CF48CC122813381220D331D3C8306
:100F10002B83D901D0964D905D906D907C90D397A6
:100F2000F901808D918DA28DB38D480E591E6A1ED8
:100F30007B1E40AA51AA62AA73AA84899589A689B0
:100F4000B7897201E81AF90A868597850C97978701
:100F500086878685978597FDBBC086859785873F61
:100F600099400CF0B8C0D9011E968D919C91EB81EF
:100F7000FC819787868780859185C0ACD1AC8C1524
:100F80009D05CCF48285938565E070E00E94AD0CF0
:100F9000CB01880F991F680F791F6E157F055CF4D0
:100FA0002085318586A997A92817390724F48085DB
:100FB000918597AB86ABAB81BC8118968D919C9146
:100FC0001997C816D9069CF418962D913C9119973B
:100FD000D4968D919C91D5978217930744F41896D7
:100FE0008D919C911997D5969C938E93D497BBEF36
:100FF000EB16F1040CF4A5C0EB81FC818085918592
:10100000C816D9060CF09DC0848581119AC08285CE
:10101000938565E070E00E94AD0CCB01880F991FAD
:10102000680F791F6E157F050CF08BC021E02487B7
:1010300084899589A689B789F201E81BF90BAB81F0
:10104000BC811B96FC93EE931A97FD01448A558A46
:10105000668A778A83AD882371F013AE7C96CD01C2
:10106000C096AB81BC811A962D913C91219331930E
:101070008E179F07B1F7EB81FC8182AD882371F158
:1010800012AE21E023AFAB81BC8112968D919C9171
:10109000139797FD08C01C962C9161E0211101C0A7
:1010A00060E00E941C04EB81FC812481358137FDC6
:1010B00009C0868597856AE070E00E94AD0C822F9A
:1010C0000E9468040F5F1F4FFCE32F0E311C13CFEB
:1010D00090E080E04CCF86EF99E049CFEB81FC8136
:1010E0007C964B815C81425D5F4F30E020E08281E5
:1010F000938181939193280F391F4E175F07B9F79A
:10110000AB81BC811A968D919C911B979F969C9365
:101110008E939E97820F931F6AE070E00E94990C55
:101120009B0150E040E0C501B4010E94E30CEB815B
:10113000FC813783268321E0258786EF99E0978716
:101140008687AB81BC8118968D919C9119978C15DF
:101150009D053CF51C968C911C97882311F11C96DB
:101160001C921C97D6964D915C91D797D4962D9151
:101170003C91D597241B350B53963C932E93529755
:1011800052968D919C9197FD019695958795840F28
:10119000951FEB81FC8191AF80AF95AB84AB97AB92
:1011A00086ABF5ECEF16F9E0FF060CF46CCFAB81E3
:1011B000BC8150968D919C915197D9969C938E931A
:1011C000D897E0E0F2E0D596FC93EE93D497D796CB
:1011D000FC93EE93D69754964D925D926D927C92CD
:1011E0005797E1E0DA96EC93DA97DB961C92DB975F
:1011F0001D961C921D9717961C921E92169728E515
:1012000032E01B963C932E931A971C961C921C97C7
:1012100084E690E053969C938E93529734CF81E06E
:10122000A981BA8118968C9378940F900F900F90A3
:101230000F90DF91CF91FF91EF91BF91AF919F916F
:101240008F917F916F915F914F913F912F911F915E
:101250000F91FF90EF90DF90CF90BF90AF909F9055
:101260008F907F906F905F904F903F902F900F9056
:101270000FBE0F901F90189510923B0210923A02E9
:1012800088EE93E0A0E0B0E080933C0290933D02B2
:10129000A0933E02B0933F028BE091E0909339021D
:1012A0008093380285EC90E090934502809344024D
:1012B00084EC90E0909347028093460280EC90E0AB
:1012C000909349028093480281EC90E090934B0206
:1012D00080934A0282EC90E090934D0280934C02FE
:1012E00086EC90E090934F0280934E021092510250
:1012F0001092520210925302109254021092E50280
:101300001092E4021092E7021092E6021092E902B3
:101310001092E80250E040E06BE171E084EE92E070
:101320000E948F051092E1021092E00282E090E0AC
:101330009093E3028093E20287ED92E09093D602CD
:101340008093D50281E08093D8028CE390E00E94E4
:10135000080DFC018EE090E0918380838FEF9FEF7A
:10136000938382839583848382E090E0A0E0B0E061
:10137000808F918FA28FB38FDF015C96CF01C096D3
:101380001D921D928A179B07D9F715861782168220
:101390008EEE92E093878287148610AA11AA12AA71
:1013A00013AA148A158A168A178A80E092E095ABF0
:1013B00084AB97AB86AB86E292E0918B808B91AF4A
:1013C00080AF84E690E0938B828B81E082AF13AE96
:1013D00017861686F093DA02E093D9020895CF9328
:1013E000DF93CDB7DEB7A3970FB6F894DEBF0FBE7D
:1013F000CDBF789484B5826084BD84B5816084BD9E
:1014000085B5826085BD85B5816085BD80916E00A2
:10141000816080936E0010928100809181008260D3
:101420008093810080918100816080938100809110
:1014300080008160809380008091B10084608093FF
:10144000B1008091B00081608093B00080917A00FB
:10145000846080937A0080917A00826080937A0021
:1014600080917A00816080937A0080917A00806810
:1014700080937A001092C10087E00E948900E09179
:101480004802F091490282E08083E0914402F091A9
:1014900045021082E0914602F09147028FEC808372
:1014A00010925002E0914C02F0914D0286E0808350
:1014B000E0914A02F0914B02808180618083E0914B
:1014C0004A02F0914B02808188608083E0914A0259
:1014D000F0914B02808180688083E0914A02F09114
:1014E0004B0280818F7D8083E091D902F091DA02F6
:1014F000118210828DE090E093838283F89486E2DB
:1015000092E0918B808B91AF80AF7894F12CE12C9D
:10151000D12CC12C8091D8028C151D0439F134F1E5
:101520000091D9021091DA020E0D1F1DF80182817F
:10153000938197FD07C00E94890060E0F8018281D5
:101540000E941C04F8018481958197FD08C00E94C7
:10155000890070E060E0F80184810E946804FFEF78
:10156000CF1ADF0A2CE3E20EF11CD4CF0E94C40490
:101570006053784F8F4F9F4F6093DB027093DC0274
:101580008093DD029093DE021092DF021092D70268
:1015900010928000109282008CE0809381008CE792
:1015A00090E0909389008093880082E080936F00A0
:1015B00078948CE191E00E94E90489E191E00E9435
:1015C000E9049AE0492E512C612C712C20E0222E46
:1015D00020E0322E8EE391E00E94E90488E392E05D
:1015E0000E946D03892BD1F31A8219821C821B82FF
:1015F0001E821D8250E040E06BE171E0CE01019659
:101600000E948F050E941F0397FD0FC08A3091052D
:1016100061F08AA31BA241E050E0BE016E5D7F4FE6
:10162000CE0101960E944D05EDCF8091E40290918C
:10163000E502009709F4EAC069817A8161157105B4
:1016400009F4E2C04091E6025091E7022D813E810B
:101650004217530708F4D8C00E94F30E8D819E8173
:101660009093E9028093E8021E821D82CE010196CA
:101670000E941D051A8219821C821B821E821D82F5
:1016800042E150E06FE471E0CE0101960E948F05C7
:101690004091E8025091E9026091E4027091E50204
:1016A000CE0101960E944D05811104C0CE01019624
:1016B0000E940B056CE371E0CE0101960E94790552
:1016C0000E94F604CE0101960E941D05E091D90208
:1016D000F091DA0206811781F89485851586789451
:1016E000882309F459C082E691E00E94E90489E167
:1016F00091E00E94E9048AE791E00E94E904680110
:10170000012E000CEE08FF08F7FE97C06DE288E39B
:1017100092E00E94AF0322273327A9012C193D092B
:101720004E095F0919A2CE0181967C01CA01B90157
:10173000A30192010E94C10C605DF70162937F01D9
:10174000211531054105510589F7E114F10419F01E
:10175000C7010E94E90489E191E00E94E904CE01F9
:1017600001960C3311050CF07EC00E94B00560E8B4
:1017700071E0CE0101960E9479050E94F604CE0127
:1017800001960E941D056FEF70E087E00E946804DB
:1017900086E091E00E94A80089E191E00E94E904BE
:1017A00089E191E00E94E9040E94C4044B015C01BC
:1017B00084E1C82ED12CE12CF12C0E94C4046819BC
:1017C00079098A099B09683E734081059105A8F350
:1017D000F1E0CF1AD108E108F10828EE820E23E0EB
:1017E000921EA11CB11CC114D104E104F10429F71B
:1017F0002114310409F4EECE0E947903882309F400
:10180000E9CE0E940000E6CE0E94A40D89819A8153
:101810009093E5028093E4028B819C819093E70290
:101820008093E6028D819E819093E9028093E80285
:101830001A8219821C821B8217CFA701960119A256
:10184000CE0181967C01CA01B901A30192010E94D7
:10185000C10C605DF70162937F01211531054105DF
:10186000510589F772CF053611052CF00E94B0059D
:1018700060EC71E07ECF0E94B00561E072E0CE01C5
:1018800001960E9479050E94F604CE0101960E94FD
:101890001D0570E060E087E00E9468047DCF84EE63
:1018A00092E00C941D052F923F924F925F926F929F
:1018B0007F928F929F92AF92BF92CF92DF92EF92E0
:1018C000FF920F931F93CF93DF93CDB7DEB7CA1B61
:1018D000DB0B0FB6F894DEBF0FBECDBF09942A888C
:1018E000398848885F846E847D848C849B84AA8434
:1018F000B984C884DF80EE80FD800C811B81AA81C1
:10190000B981CE0FD11D0FB6F894DEBF0FBECDBF8B
:10191000ED010895A29FB001B39FC001A39F700D78
:10192000811D1124911DB29F700D811D1124911DE7
:101930000895AA1BBB1B51E107C0AA1FBB1FA61716
:10194000B70710F0A61BB70B881F991F5A95A9F768
:1019500080959095BC01CD01089597FB072E16F454
:10196000009407D077FD09D00E94990C07FC05D0A0
:101970003EF4909581959F4F0895709561957F4FA6
:101980000895A1E21A2EAA1BBB1BFD010DC0AA1FC0
:10199000BB1FEE1FFF1FA217B307E407F50720F0D8
:1019A000A21BB30BE40BF50B661F771F881F991F53
:1019B0001A9469F760957095809590959B01AC019C
:1019C000BD01CF010895052E97FB1EF400940E94DF
:1019D000FA0C57FD07D00E94C10C07FC03D04EF44F
:1019E0000C94FA0C50954095309521953F4F4F4FF0
:1019F0005F4F089590958095709561957F4F8F4FBB
:101A00009F4F0895EE0FFF1F0590F491E02D09946C
:101A10000F931F93CF93DF938230910510F482E0F0
:101A200090E0E091EC02F091ED0230E020E0B0E0D7
:101A3000A0E0309799F42115310509F44AC0281B1C
:101A4000390B24303105D8F58A819B8161157105E8
:101A500089F1FB0193838283FE0111C04081518192
:101A60000281138148175907E0F04817590799F484
:101A7000109761F012960C93129713961C9332965E
:101A8000CF01DF91CF911F910F9108950093EC0248
:101A90001093ED02F4CF2115310551F04217530791
:101AA00038F0A901DB019A01BD01DF01F801C1CFC6
:101AB000EF01F9CF9093ED028093EC02CDCFFE01C0
:101AC000E20FF31F819391932250310939832883C8
:101AD000D7CF2091EA023091EB02232B41F42091E1
:101AE0000301309104013093EB022093EA0220912C
:101AF0000101309102012115310541F42DB73EB7A6
:101B00004091050150910601241B350BE091EA023A
:101B1000F091EB02E217F307A0F42E1B3F0B2817FE
:101B2000390778F0AC014E5F5F4F2417350748F056
:101B30004E0F5F1F5093EB024093EA028193919303
:101B40009FCFF0E0E0E09CCFCF93DF930097E9F0E8
:101B5000FC01329713821282A091EC02B091ED0247
:101B6000ED0130E020E01097A1F420813181820F57
:101B7000931F2091EA023091EB022817390709F0F0
:101B800061C0F093EB02E093EA02DF91CF910895F8
:101B9000EA01CE17DF07E8F54A815B819E01411516
:101BA0005105B1F7E901FB83EA8349915991C40FCB
:101BB000D51FEC17FD0761F4808191810296840F97
:101BC000951FE90199838883828193819B838A830E
:101BD000F0E0E0E012968D919C9113970097B9F593
:101BE0002D913C911197CD010296820F931F209168
:101BF000EA023091EB022817390739F6309751F590
:101C00001092ED021092EC02B093EB02A093EA0264
:101C1000BCCFD383C28340815181840F951FC817E5
:101C2000D90761F44E5F5F4F88819981480F591F32
:101C3000518340838A819B8193838283211531055F
:101C400009F0B0CFF093ED02E093EC029ECFFD01DE
:101C5000DC01C0CF13821282D7CFB0E0A0E0E3E373
:101C6000FEE00C94550C8C01009751F4CB010E94BE
:101C7000080D8C01C801CDB7DEB7E0E10C94710C02
:101C8000FC01E60FF71F9C0122503109E217F30710
:101C900008F49DC0D901CD91DC911197C617D707E3
:101CA00098F0C530D10530F3CE0104978617970719
:101CB00008F3C61BD70B2297C193D1936D937C93E6
:101CC000CF010E94A40DD6CF5B01AC1ABD0A4C0116
:101CD0008C0E9D1EA091EC02B091ED02512C412C76
:101CE000F12CE12C109731F58091EA029091EB02F2
:101CF0008815990509F05CC04616570608F058C0CB
:101D00008091010190910201009741F48DB79EB737
:101D10004091050150910601841B950BE817F907C6
:101D200008F055C0F093EB02E093EA02F9017183E9
:101D30006083A0CF8D919C91119712966C90129711
:101D400013967C901397A815B90559F56C0142E0DC
:101D5000C40ED11CCA14DB0420F1AC014A195B0982
:101D6000DA011296159780F0628273825183408364
:101D7000D9016D937C93E114F10471F0D7011396AE
:101D8000FC93EE93129776CF22968C0F9D1FF9014C
:101D900091838083F301EFCFF093ED02E093EC02A7
:101DA00069CF4816590608F42C017D01D3019ACF5A
:101DB000CB010E94080D7C01009749F0AE01B801EB
:101DC0000E94EA0EC8010E94A40D870153CF10E0C3
:101DD00000E050CFFB01DC0102C001900D924150A8
:101DE0005040D8F70895FB01DC0101900D920020CE
:101DF000E1F7089510E0CEE5D0E004C0FE010E94B6
:101E0000020D2196CF35D107C9F7F894FFCFFF0017
:101E100000EE02800000000000AF03CF02FC02FCD5
:101E2000036D030B035F030D0A00576520637265A2
:101E30006174656420612070756C736553656E73A1
:101E40006F72204F626A656374202100456E74656D
:101E50007220796F7572204E616D653A004E69632C
:101E60006520746F206D65657420796F752C200076
:101E700041204865617274426561742048617070E8
:101E8000656E65642021200042504D3A20002C20D0
:101E9000596F7572204865617274205261746520B3
:101EA0006973204C6F7720616E6420796F752061B3
:101EB000726520737566666572696E672066726FFB
:101EC0006D204252414459434152444941002C2023
:101ED000596F757220486561727420526174652073
:101EE0006973204869676820616E6420796F752086
:101EF00061726520737566666572696E67206672C9
:101F00006F6D205441434859434152444941002C8C
:101F100020596F7572204865617274207261746512
:0C1F2000206973206E6F726D616C000010
:107E0000112484B714BE81FFF0D085E080938100F7
:107E100082E08093C00088E18093C10086E0809377
:107E2000C20080E18093C4008EE0C9D0259A86E02C
:107E300020E33CEF91E0309385002093840096BBD3
:107E4000B09BFECF1D9AA8958150A9F7CC24DD24C4
:107E500088248394B5E0AB2EA1E19A2EF3E0BF2EE7
:107E6000A2D0813461F49FD0082FAFD0023811F036
:107E7000013811F484E001C083E08DD089C08234E0
:107E800011F484E103C0853419F485E0A6D080C0E4
:107E9000853579F488D0E82EFF2485D0082F10E0AE
:107EA000102F00270E291F29000F111F8ED06801E7
:107EB0006FC0863521F484E090D080E0DECF843638
:107EC00009F040C070D06FD0082F6DD080E0C81688
:107ED00080E7D80618F4F601B7BEE895C0E0D1E017
:107EE00062D089930C17E1F7F0E0CF16F0E7DF06D8
:107EF00018F0F601B7BEE89568D007B600FCFDCFD4
:107F0000A601A0E0B1E02C9130E011968C91119780
:107F100090E0982F8827822B932B1296FA010C0160
:107F200087BEE89511244E5F5F4FF1E0A038BF0790
:107F300051F7F601A7BEE89507B600FCFDCF97BE46
:107F4000E89526C08437B1F42ED02DD0F82E2BD052
:107F50003CD0F601EF2C8F010F5F1F4F84911BD097
:107F6000EA94F801C1F70894C11CD11CFA94CF0C13
:107F7000D11C0EC0853739F428D08EE10CD085E9AC
:107F80000AD08FE07ACF813511F488E018D01DD067
:107F900080E101D065CF982F8091C00085FFFCCF94
:107FA0009093C60008958091C00087FFFCCF809118
:107FB000C00084FD01C0A8958091C6000895E0E648
:107FC000F0E098E1908380830895EDDF803219F02E
:107FD00088E0F5DFFFCF84E1DECF1F93182FE3DFCA
:107FE0001150E9F7F2DF1F91089580E0E8DFEE27F6
:047FF000FF270994CA
:027FFE00040479
:00000001FF
